:020000040800F2
:1000000010F1002031030008C58B000821710008A1
:1000100079870008FB230008A7DD00080000000026
:100020000000000000000000000000007102000855
:100030003D36000800000000CD02000801CF000896
:100040004B0300084B0300084B0300084B03000858
:100050004B0300084B0300084B0300084B03000848
:100060004B030008D5380008DF3800084B030008B0
:10007000AD3200084B0300084B0300084B03000897
:100080004B0300084B0300084B0300084B03000818
:10009000012400084B0300084B030008E93800085E
:1000A0004B0300084B0300084B0300084B030008F8
:1000B0004B0300084B0300084B0300084B030008E8
:1000C0004B0300084B0300084B0300084B030008D8
:1000D0004B03000855DB00084B0300087DDC0008DB
:1000E0004B0300084B0300084B0300084B030008B8
:1000F0004B0300084B0300084B0300084B030008A8
:100100004B0300084B0300084B0300084B03000897
:100110004B0300084B030008FDCF00084B03000809
:100120004B030008BD3200084B0300084B030008D6
:100130004B0300084B0300084B0300084B03000867
:10014000112400084B0300084B0300084B03000870
:10015000CD3200084B030008DD32000891DC0008B6
:100160004B0300084B0300084B0300084B03000837
:100170004B0300084B0300084B030008000000007D
:100180004B0300084B03000800F002F800F060F891
:100190000AA090E8000C82448344AAF10107DA45E2
:1001A00001D100F055F8AFF2090EBAE80F0013F0D4
:1001B000010F18BFFB1A43F001031847102F01006D
:1001C000302F01000A444FF0000C10F8013B13F0EF
:1001D000070408BF10F8014B1D1108BF10F8015BA0
:1001E000641E05D010F8016B641E01F8016BF9D193
:1001F00013F0080F1EBF10F8014BAD1C0C1B09D1EA
:100200006D1E58BF01F801CBFAD505E014F8016B5B
:1002100001F8016B6D1EF9D59142D6D370470000ED
:100220000023002400250026103A28BF78C1FBD8FF
:10023000520728BF30C148BF0B6070471FB511F08F
:1002400022FB9DE8030000F03FFA1FBD10B510BD72
:1002500000F0CCFA1146FFF7F1FF0EF0A7FC00F01A
:10026000EAFA03B4FFF7F2FF03BC00F01BFB000047
:100270002C4B19680868B0E8F04F80F30988BFF389
:100280006F8F4FF0000080F311887047000000006E
:1002900008480068006880F308884FF0000080F389
:1002A000148862B661B6BFF34F8FBFF36F8F00DF64
:1002B00000BF00BF08ED00E0DFF80C00016841F46A
:1002C00070010160704700BF88ED00E0EFF3098026
:1002D000BFF36F8F134B1A681EF0100F08BF20ED8D
:1002E000108A20E9F04F106009B44FF0500080F3FD
:1002F0001188BFF34F8FBFF36F8F0FF0DDFF4FF00B
:10030000000080F3118809BC19680868B0E8F04F54
:100310001EF0100F08BFB0EC108A80F30988BFF3FD
:100320006F8F704740000020EFF30580704700009A
:100330000948804709480047FEE7FEE7FEE7FEE779
:10034000FEE7FEE7FEE7FEE7FEE7FEE704480549B5
:10035000054A064B70470000E9CF000889010008F4
:100360001091002010F1002010B1002010B10020E9
:1003700070B5064600F08CF9056806F10B0020F018
:100380000704B4429CBF002070BD2B466A68BAB116
:100390001068A04210D304F1080188423CBF5068A5
:1003A000586007D35168101941601168091B01603A
:1003B00058601460101D70BD13465268002AE7D1C2
:1003C0002146284600F06CF90028DED170BD53EAC2
:1003D000020C00F069802DE9F04B4FF00006002B75
:1003E0001FBFB3FA83F503FA05F424FA05F65E405D
:1003F00012BF1643B2FA82F502FA05F4C5F12005E0
:100400001EBF22FA05FC44EA0C04203556EA044CCF
:100410004FEA144418BF641C4FF000084FF0000965
:10042000904271EB030C39D3002919BFB1FA81F75F
:1004300001FA07F6B0FA80F700FA07F6C7F12007CD
:100440001EBF20FA07FC46EA0C062037B6FBF4FC78
:10045000A7EB0507103F07F01F0BCBF120060CFAA6
:100460000BFB2CFA06F644BFB3460026202FA4BF90
:100470005E464FF0000B5BEA060C08BF4FF0010B25
:1004800019EB0B09ABFB027C48EB0608C01B06FB13
:1004900002CC0BFB03CC71EB0C01C1E70B4602460F
:1004A00041464846BDE8F08B13B54FF000004FF0D1
:1004B0000001AFF30080BDE81C40704710B5431C3D
:1004C00002E010F8011B71B18107FAD14FF001323F
:1004D00002C88C1A8C4314EAC211F9D0C01A0A0659
:1004E00003D0C01E10BDC01A10BD0A0401D0801E6A
:1004F00010BD0902FCD0401E10BD032A40F230801E
:1005000010F0030C00F0158011F8013BBCF1020F54
:10051000624498BF11F801CB00F8013B38BF11F8D5
:10052000013BA2F1040298BF00F801CB38BF00F8EC
:10053000013B11F0030300F02580083AC0F0088069
:1005400051F8043B083A51F804CBA0E80810F5E74D
:10055000121D5CBF51F8043B40F8043BAFF3008030
:10056000D20724BF11F8013B11F801CB48BF11F8A5
:10057000012B24BF00F8013B00F801CB48BF00F875
:10058000012B704710B5203AC0F00B80B1E818502D
:10059000203AA0E81850B1E81850A0E81850BFF46D
:1005A000F5AF5FEA027C24BFB1E81850A0E818500C
:1005B00044BF18C918C0BDE810405FEA827C24BF60
:1005C00051F8043B40F8043B08BF7047D20728BFEE
:1005D00031F8023B48BF11F8012B28BF20F8023B3D
:1005E00048BF00F8012B704702F0FF0343EA0322E3
:1005F00042EA024200F002B84FF000020429C0F0C3
:10060000128010F0030C00F01B80CCF1040CBCF144
:10061000020F18BF00F8012BA8BF20F8022BA1EB96
:100620000C0100F00DB85FEAC17C24BF00F8012B7B
:1006300000F8012B48BF00F8012B70474FF0000273
:1006400000B5134694469646203922BFA0E80C50C8
:10065000A0E80C50B1F12001BFF4F7AF090728BFA3
:10066000A0E80C5048BF0CC05DF804EB890028BF1F
:1006700040F8042B08BF704748BF20F8022B11F048
:10068000804F18BF00F8012B7047704770477047C4
:1006900000487047B490002070477047704770471B
:1006A00038B504460A4600206946AFF300800028AA
:1006B00008BF38BD02460099204600F075F80120B9
:1006C00038BD012000F08AB8F8B5AFF300800546C8
:1006D00000200C46102000BF0646A819A0420DD9E4
:1006E000324669460020AFF30080070008BF00F0E3
:1006F00075F80098A04218BF0546C419FFF7C8FF57
:1007000005600746F01D20F007004619284600F056
:100710000AF8B44208BFF8BDA21B31463868BDE8EC
:10072000F84000F041B800210160C0E901107047B5
:100730001020704770B50446051FFFF7A9FF006839
:10074000002C14BF446870BD002C18BFAC423CBFE5
:1007500020466468F8D301680A18AA4218BF4560A9
:1007600003D12A6805461144016028684119A14255
:100770001CBF6C6070BD61686960216808442860B6
:1007800070BD10B500F00CF8006810BD10B504463F
:1007900000F006F8046010BD00487047AC900020DF
:1007A00000487047AC900020034640688C46002803
:1007B00018BF88423CBF03464068F8D31868184405
:1007C000884207D00CF1030020F00700001D411AF9
:1007D000521A0146081D0A60FFF7ACBF10B500F0C1
:1007E00039F8BDE8104000F02FB870477546FFF7A4
:1007F000D3FFAE4605006946534620F00700854604
:1008000018B020B5FFF7A2FDBDE820404FF000066C
:100810004FF000074FF000084FF0000B21F00701E8
:10082000AC46ACE8C009ACE8C009ACE8C009ACE82B
:10083000C0098D46704710B50446AFF300802046CE
:10084000BDE81040FFF70DBD002801D000F02AB828
:100850007047000010B5012805D0002103A000F06A
:1008600027F8012010BD09A1F8E7000053494752BD
:10087000544D454D3A204F7574206F662068656170
:1008800070206D656D6F7279000000003A20486538
:100890006170206D656D6F727920636F7272757013
:1008A0007465640001491820ABBEFEE72600020013
:1008B00070B505460C460A2000E06D1C00F011F8EA
:1008C00035B128780028F8D102E0641C00F009F85E
:1008D00014B120780028F8D1BDE870400A20AFF3A9
:1008E000008008B569468DF800000320ABBE08BD46
:1008F0009FED241AB5EE002A42F6C8030021B7EE98
:10090000004AC0F6010320EE010A30EE020ABDEEF5
:10091000C01AB5EEC00A11EE100AF1EE10FA9FED02
:100920001A1AB8BF013802EE100AB8EEC22A30EE29
:10093000420A9FED162A20EE010ABDEEC01A11EE02
:10094000100A30EE021A0246B1EB502F18BF0022F7
:1009500002EE102A03EB8203B1EB502F18BFB0EE6A
:10096000410AB8EE421A93ED002A93ED013A30EEB7
:10097000410A34EE401A20EE030A21EE021A31EE4B
:10098000000A704783F9223E00000044000000C4C2
:1009900080B5B0F800E00B889E4555D1B0F802C094
:1009A0004B889C4550D113889E454DD153889C451A
:1009B0004AD15268496840680CFB0EFC0023B3EB37
:1009C0009C0F2BD04FEA9C035B4200BF91ED000AC5
:1009D00090ED001A013331EE000A82ED000A91ED2C
:1009E000010A90ED011A31EE000A82ED010A91ED43
:1009F000020A90ED021A31EE000A82ED020A91ED30
:100A0000030A90ED031A01F1100100F1100031EE1C
:100A1000000A82ED030A02F11002D7D11CF0030391
:100A200010D05B4291ED000A90ED001A013301F104
:100A3000040100F1040031EE000A82ED000A02F127
:100A40000402EFD1002000E0FD2040B280BD4360F1
:100A500042800180704700002DE9F04F8BB0B0F864
:100A600002E0B0F800B0F34540F052810B88FD225F
:100A70009B4540F04E814F88BB4240F04A81476819
:100A8000BBF1000F00F02C814C686FF00300009761
:100A900000274FF07E595E46CDF81CE000EB8B0836
:100AA00020460694BBEB060008D0B9002046FFF7AD
:100AB000C5FD0020013004348742FBD104F1040A53
:100AC000751EC4F800900FD0A8EB87015046FFF7C1
:100AD000B5FD0120544600BF013004348642FBD1ED
:100AE0000137002D2E46DDD1009FDDF81CE0BBF163
:100AF000000F00F0F580042039469FED8A0A07EBCD
:100B00008E0C3B1D4FEA8E05ABF101047746CDF804
:100B100014B000EB8E0089460190CEF100000890E1
:100B2000002000BF584580F0F880069A00FB0EF1C7
:100B30006646B0EE403A02EB810209EB810191ED8D
:100B4000001A099121460A92B0EE414A07E000BF1F
:100B500096ED004A72190139B0EE423A1646B5EEEA
:100B6000C04AF1EE10FA09DDB4EEC34AB0EE442AF1
:100B7000F1EE10FAD8BFB0EE432A08E0B1EE442AF5
:100B8000B4EEC23AF1EE10FA01DBB0EE432A0029CE
:100B9000DED1B5EE402AF1EE10FA00F0BE80B0EEE4
:100BA000C13AB4EE423AF1EE10FA1CBFC14311EB68
:100BB0000B0104D0002100BF01318C42FCD1B5EE05
:100BC000401AF1EE10FA00F0A880CDE9034CAEEB2C
:100BD000000C4FF07E51099ABCF1010F11600AD050
:100BE00001211A4692ED002A01318F4282EE012A3C
:100BF000A2EC012AF6D108990A9A00BF92ED002AC8
:100C0000013182EE012A82ED002A02F10402F5D1BF
:100C10000599DDF818A0ACF1010B4FF000084E4625
:100C2000CDF80890804505D10AEB8E0A06EB8C06BC
:100C300038E000BF099A96ED001ABBF1000F92ED63
:100C4000002A21EE022A31EE422AA6EC012A16D011
:100C50000122002403EB040906EB040E01320434E4
:100C600099ED002A9EED003A974221EE022A33EEDA
:100C7000422A8EED002AEDD1DDF81CE02644089AC8
:100C80000A9C00BF94ED002A9AED003A013204F16B
:100C9000040421EE022A33EE422A8AED002A0AF1E8
:100CA000040AEFD106EB800608F101080139B9D139
:100CB000039CDDF808900199DDF810C0DDF814B050
:100CC0000130013F0B448C44A4F1010409F10409F3
:100CD0007FF428AFB5EE401A009FF1EE10FA1ED156
:100CE0000EFB0BF10020002259B100BF97ED000A66
:100CF000B5EE400AF1EE10FA03D1013204378A4210
:100D0000F4D38A4208BF6FF004000BB0BDE8F08F47
:100D1000FD2250B20BB0BDE8F08FFB22F9E70022B4
:100D2000F7E700BF000000002DE9F04F89B04688CA
:100D30000B889E4240F08E80058813889D4240F0CB
:100D40008980B1F802E053889E4540F083800023FB
:100D5000446852684968B7089FED410AA3EB9600C2
:100D6000089026F00300029206F00302019104EBC2
:100D7000800B07FB0EF001EB00104FEA8E01009094
:100D800050420790CDE903E6029806950593DDE908
:100D900000AC00EB830800BF002FB0EE401AE14624
:100DA00020462FD0089D63462046B0EE401A00BF73
:100DB0005E1893ED002A90ED003A90ED014A90ED17
:100DC000025A90ED036A1030013596ED007A06EB79
:100DD000010323EE022A93ED003A0B4431EE021A8E
:100DE00093ED002A24EE074A0B4431EE041A25EE57
:100DF000033A31EE031A26EE022A31EE021AD7D157
:100E0000D14658466AB1079D99ED002A90ED003A07
:100E10008944013500F1040023EE022A31EE021A62
:100E2000F2D188ED001A0AF1040A0CF1040CBEF1AB
:100E3000010E08F10408AFD1049E069DDDF80CE018
:100E4000059B0BEB860B04EB86047344013D9BD1A1
:100E5000002000E0FD2040B209B0BDE8F08F00BFE7
:100E60000000000080B5B0F800E00B889E4555D129
:100E7000B0F802C04B889C4550D113889E454DD197
:100E800053889C454AD15268496840680CFB0EFC67
:100E90000023B3EB9C0F2BD04FEA9C035B4200BFB7
:100EA00091ED000A90ED001A013331EE400A82ED17
:100EB000000A91ED010A90ED011A31EE400A82ED2F
:100EC000010A91ED020A90ED021A31EE400A82ED1C
:100ED000020A91ED030A90ED031A01F1100100F1ED
:100EE000100031EE400A82ED030A02F11002D7D160
:100EF0001CF0030310D05B4291ED000A90ED001A44
:100F0000013301F1040100F1040031EE400A82EDE9
:100F1000000A02F10402EFD1002000E0FD2040B2FF
:100F200080BD00002DE9F04F82B0B0F800E04B88A2
:100F30009E454BD144880B889C4247D100234E6884
:100F400004F0030B40684FEA0E184FEA940AA3EB33
:100F50009401CBF1000901914FEA8E0132460096CF
:100F6000BAF1000F1CD0019F344600BF254604682B
:100F700001372C6044686C5005EB0104D0F808C0C0
:100F800044F801C00C44C26800F11000625004EB48
:100F9000010202EB0104E9D105EB080703E000BF01
:100FA000009A02EB8307BBF1000F07D04D4600BF4C
:100FB00050F8042B01353A600F44F9D10436BEF1E4
:100FC000010E03F10103CBD1002000E0FD2040B26F
:100FD00002B0BDE8F08F00009FED221A42F6C80370
:100FE0000021B7EE004AC0F6010320EE010ABDEE73
:100FF000C01AB5EEC00A11EE100AF1EE10FA9FED1C
:101000001A1AB8BF013802EE100AB8EEC22A30EE42
:10101000420A9FED162A20EE010ABDEEC01A11EE1B
:10102000100A30EE021A0246B1EB502F18BF002210
:1010300002EE102A03EB8203B1EB502F18BFB0EE83
:10104000410AB8EE421A93ED002A93ED013A30EED0
:10105000410A34EE401A20EE030A21EE021A31EE64
:10106000000A704783F9223E00000044000000C4DB
:1010700038B50020009000246C48006802F021FD83
:1010800080216B4800680BF036FD552168480068E8
:101090000BF031FD5521664800680BF02CFD0090E7
:1010A0006248006802F01CFD022003F0DBFF5F488D
:1010B000006802F006FD80215D4800680BF01BFD12
:1010C00055215B4800680BF016FD55215848006813
:1010D0000BF011FD00905548006802F001FD022060
:1010E00003F0C0FF5148006802F0EBFC7E2150483D
:1010F00000680BF000FDB6214D4800680BF0FBFCCA
:101100004A48006802F0ECFC502003F0ABFF47486F
:10111000006802F0D6FC8021454800680BF0EBFC2B
:101120005521434800680BF0E6FC55214048006813
:101130000BF0E1FC00903D48006802F0D1FC022079
:1011400003F090FF3948006802F0BBFC802138486A
:1011500000680BF0D0FC5521354800680BF0CBFC43
:101160005521334800680BF0C6FC00902F480068FA
:1011700002F0B6FC022003F075FF9DF800001E2867
:1011800001D0FF2038BD00244CE02848006802F060
:1011900098FC04EB4400274A115C254800680BF0DA
:1011A000AAFC04EB4400234A10444178204800681C
:1011B0000BF0A1FC1D48006802F092FC022003F035
:1011C00051FF1A48006802F07CFC04EB4400194A05
:1011D000105C40F08001164800680BF08CFC552133
:1011E000134800680BF087FC5521114800680BF08C
:1011F00082FC00900D48006802F072FC022003F0AF
:1012000031FF04EB44000B49084440789DF800107E
:10121000884205D004EB4400064908448078B1E7D1
:10122000601CC4B2062CB0DB0020ABE770030020CA
:10123000A80200207C02002030B585B000250020E7
:10124000009001900024FE48006802F03AFC8021E2
:10125000FC4800680BF04FFC5521FA4800680BF081
:101260004AFC5521F74800680BF045FC0546F44858
:10127000006802F035FC022003F0F4FEF04800683C
:1012800002F01FFC8021EF4800680BF034FC552170
:10129000EC4800680BF02FFC5521EA4800680BF081
:1012A0002AFC0546E648006802F01AFC022003F01A
:1012B000D9FEE348006802F004FC7E21E1480068A2
:1012C0000BF019FCB621DF4800680BF014FCDC4879
:1012D000006802F005FC502003F0C4FED848006806
:1012E00002F0EFFB8021D74800680BF004FC552189
:1012F000D44800680BF0FFFB5521D24800680BF082
:10130000FAFB0546CE48006802F0EAFB022003F033
:10131000A9FECB48006802F0D4FB8021C9480068D0
:101320000BF0E9FB5521C74800680BF0E4FB5521A1
:10133000C44800680BF0DFFB0546C148006802F0B6
:10134000CFFB022003F08EFE1E2D02D0FF2005B041
:1013500030BD00244CE0BA48006802F0B2FB04EB58
:101360004400B94A115CB74800680BF0C4FB04EBB9
:101370004400B54A10444178B24800680BF0BBFB0A
:10138000AF48006802F0ACFB022003F06BFEAC48F3
:10139000006802F096FB04EB4400AB4A105C40F09E
:1013A0008001A84800680BF0A6FB5521A5480068FD
:1013B0000BF0A1FB5521A34800680BF09CFB0546F0
:1013C0009F48006802F08CFB022003F04BFE04EB08
:1013D00044009D4908444078A84204D004EB4400EE
:1013E00008448078B3E7502003F03CFE601CC4B290
:1013F000042CB0DB00248DE09148006802F061FB12
:10140000201D00EB4000904A115C8E4800680BF0F4
:1014100072FB201D00EB40008B4A10444178894844
:1014200000680BF068FB8648006802F059FB022058
:1014300003F018FE8248006802F043FB201D00EB19
:101440004000814A105C40F080017E4800680BF04B
:1014500052FB55217B4800680BF04DFB5521794824
:1014600000680BF048FB05467548006802F038FB41
:10147000022003F0F7FD201D00EB400072490844F4
:101480004078A84205D0201D00EB40000844807839
:101490005DE7502003F0E6FD6948006802F011FBAB
:1014A0009221684800680BF026FB9221654800688D
:1014B0000BF021FB06226946624800680BF00BFB2B
:1014C0005F48006802F00CFB9DF80100000200B2CA
:1014D0009DF80010084304EB440102AA22F8110011
:1014E0009DF80300000200B29DF80210084304EBCF
:1014F000440102EB410148809DF80500000200B262
:101500009DF80410084304EB440102EB410188807C
:10151000601CC4B2022CFFF66FAF4948006802F0AD
:10152000D0FA6D21474800680BF0E5FA00214548E4
:1015300000680BF0E0FA4248006802F0D1FA02209D
:1015400003F090FD3E48006802F0BBFAED213D48F3
:1015500000680BF0D0FA55213A4800680BF0CBFA3E
:101560005521384800680BF0C6FA05463448006833
:1015700002F0B6FA022003F075FD0DB10420E6E694
:101580002F48006802F09DFA7E212E4800680BF07B
:10159000B2FAB6212B4800680BF0ADFA2848006873
:1015A00002F09EFA502003F05DFDBDF90800BDF980
:1015B0000E10401A40F25551884210DBBDF90A1056
:1015C000BDF91000081A40F25551884207DBBDF9F9
:1015D0000C10BDF91200081AB0F52A7F01DA80203C
:1015E000B5E61748006802F06CFA802115480068DB
:1015F0000BF081FA5521134800680BF07CFA552155
:10160000104800680BF077FA05460D48006802F0B4
:1016100067FA022003F026FD0948006802F051FA3B
:101620008021084800680BF066FA552105480068DB
:101630000BF061FA5521034800680BF05CFA05E0F5
:1016400070030020A8020020401C01080546044841
:10165000006802F045FA022003F004FD002076E65F
:10166000700300207CB500F0A7FA0446002000902B
:1016700001900420207003F021FE20668D48006850
:1016800002F01FFA92218C4800680BF034FA922184
:10169000894800680BF02FFA0622694686480068E0
:1016A0000BF019FA8348006802F01AFA9DF801005D
:1016B000000200B29DF80010084300EE100AB8EED8
:1016C000C00A7E48D0ED000A20EE200AD4ED140AAC
:1016D00020EE200A84ED010A9DF80300000200B20A
:1016E0009DF80210084300EE100AB8EEC00A7348D5
:1016F000D0ED000A20EE200AD4ED140A20EE200AD4
:1017000084ED020A9DF80500000200B29DF8041065
:10171000084300EE100AB8EEC00A6848D0ED000A8F
:1017200020EE200AD4ED140A20EE200A84ED030AEC
:101730006348006802F0C5F980215F4800680BF03B
:10174000DAF9082269465C4800680BF0C4F95C4885
:10175000006802F0C5F99DF800000F2876D194F8D2
:101760005C00E0B39DF80300000200B29DF8021097
:10177000084300EE100AF8EEC00A94ED0D0A514835
:1017800090ED001A10EE810A84ED050A9DF805001F
:10179000000200B29DF80410084300EE100AF8EEB3
:1017A000C00A94ED0E0A474890ED001A10EE810A27
:1017B00084ED060A9DF80700000200B29DF80610AD
:1017C000084300EE100AF8EEC00A94ED0F0A3D48F7
:1017D00090ED001A10EE810A84ED040A36E0FFE76E
:1017E0009DF80300000200B29DF80210084300EECD
:1017F000100AB8EEC00A3348D0ED000A20EE200AE5
:1018000084ED050A9DF80500000200B29DF8041061
:10181000084300EE100AB8EEC00A2A48D0ED000ACC
:1018200020EE200A84ED060A9DF80700000200B2AF
:101830009DF80610084300EE100AB8EEC00A2148D1
:10184000D0ED000A20EE200A84ED040A1948006851
:1018500002F037F9A221184800680BF04CF9A221D8
:10186000154800680BF047F90222694612480068E3
:101870000BF031F90F48006802F032F99DF80000D2
:10188000C0009DF8011040EA6115B5F5806F02DBDC
:10189000A5F5006005B200EE105AF8EEC00AB4EEED
:1018A000001AB3EE070A00EE810A84ED160A012041
:1018B00020707CBD70030020A8020020A002002040
:1018C00074030020A402002070B5002400255E48A7
:1018D000006802F0F6F880215C4800680BF00BF914
:1018E00055215A4800680BF006F90546564800682D
:1018F00002F0F6F8022003F0B5FB5348006802F04E
:10190000E0F88021514800680BF0F5F855214F4868
:1019100000680BF0F0F805464B48006802F0E0F86C
:10192000022003F09FFB4848006802F0CAF8142127
:10193000464800680BF0DFF8B621444800680BF019
:10194000DAF84148006802F0CBF8502003F08AFB37
:101950003D48006802F0B5F880213C4800680BF073
:10196000CAF85521394800680BF0C5F805463648D5
:10197000006802F0B5F8022003F074FB32480068FA
:1019800002F09FF88021314800680BF0B4F855212F
:101990002E4800680BF0AFF805462B48006802F0AF
:1019A0009FF8022003F05EFB0F2D01D0FF2070BDD9
:1019B000002444E02448006802F083F804EB44006B
:1019C000234A115C214800680BF095F804EB4400B1
:1019D0001F4A104441781D4800680BF08CF81A48E3
:1019E000006802F07DF8022003F03CFB1648006816
:1019F00002F067F804EB4400154A105C40F08001E7
:101A0000124800680BF077F85521104800680BF079
:101A100072F805460C48006802F062F8022003F0F4
:101A200021FB04EB44000A4908444078A84204D052
:101A300004EB440008448078B9E7601CC4B2062C6B
:101A4000B8DB0020B3E7000074030020A8020020E8
:101A50008E02002070B5002500245548006802F071
:101A600030F88021534800680BF045F85521514863
:101A700000680BF040F805464D48006802F030F869
:101A8000022003F0EFFA4A48006802F01AF88021B9
:101A9000484800680BF02FF85521464800680BF0C5
:101AA0002AF805464248006802F01AF8022003F0BE
:101AB000D9FA3F48006802F004F814213D48006854
:101AC0000BF019F8B6213B4800680BF014F83848C1
:101AD000006802F005F8502003F0C4FA34480068AA
:101AE00001F0EFFF8021334800680BF004F8552126
:101AF000304800680AF0FFFF05462D48006801F0F5
:101B0000EFFF022003F0AEFA2948006801F0D9FF88
:101B10008021284800680AF0EEFF5521254800681A
:101B20000AF0E9FF05462248006801F0D9FF0220CB
:101B300003F098FA1E48006801F0C3FF3C211D48DD
:101B400000680AF0D8FF01211A4800680AF0D3FFA4
:101B50001748006801F0C4FF502003F083FA00BF6B
:101B60001348006801F0ADFFBC21124800680AF07C
:101B7000C2FF55210F4800680AF0BDFF05460C481A
:101B8000006801F0ADFF022003F06CFA601CC4B2E3
:101B900005F0020008B90A2CE2DB0A2C01D1402032
:101BA00070BD05F0040008B14020F9E70020F7E718
:101BB00074030020A802002000487047188100200C
:101BC00030B589B0FFF7F8FF044600250EE005A9FF
:101BD00051F8250069460DF0CCFF68460CF0FAFE7E
:101BE00001A800EB850080ED000A6D1C042DEEDBE2
:101BF0009DED010ADFED300AB4EEE00AF1EE10FAD5
:101C000023DC9DED020ADFED2C0AB4EEE00AF1EED2
:101C100010FA1ADC9DED030ADFED270AB4EEE00AA4
:101C2000F1EE10FA11DC9DED040AF2EE060AB4EEB4
:101C3000E00AF1EE10FA08DC9DED040AF2EE030A68
:101C4000B4EEE00AF1EE10FA18D29FED1C0A84ED12
:101C50000D0A9FED1B0A84ED0E0A9FED190A84ED13
:101C60000F0A9FED180A84ED130A94ED130ADFEDB5
:101C7000160A80EE801A84ED141A1BE000200BE097
:101C800001A901EB800191ED000A04F1340101EB9F
:101C9000800181ED000A401C0328F1DB9DED040A60
:101CA00084ED130A94ED130ADFED070A80EE801A23
:101CB00084ED141A09B030BD8FC2753CAC38223B9C
:101CC000B016CE393F161B41C3F51C4170B5044612
:101CD000FFF772FF054600F037F8FFF7ADFA08B1DD
:101CE000802001E0FFF7C4F90C490870FFF7B2FE4D
:101CF00008B1402001E0FFF7E7FD084908700CB18A
:101D000000F04CF8FFF75CFF0448007808B10220AF
:101D100000E0012028700148007870BDF402002026
:101D200070B5FFF749FF044603F0C8FA0546206E78
:101D3000281AC82801D9022020702078012800D153
:101D400070BD0020FCE7000010B5FFF735FF04462A
:101D50009FED110A84ED010A9FED0F0A84ED020A3E
:101D60009FED0D0A84ED030A9FED0B0A84ED050A31
:101D70009FED090A84ED060A9FED070A84ED040A27
:101D80009FED050A84ED160A012084F85C0003F03B
:101D900095FA206610BD00000000000070B52DED22
:101DA000068B8CB0FFF708FF0446002001900290DC
:101DB000002601F07DFBBCEEC00AB0EE40AA00BFD9
:101DC00001F076FBF8EE4A0A30EE600AF2EE040A01
:101DD000B4EEE00AF1EE10FA10DD9FEDFE0A84ED9C
:101DE0000D0A9FEDFD0A84ED0E0A9FEDFB0A84EDBE
:101DF0000F0A9FEDFA0A84ED130A3FE29FEDF80AFD
:101E000001F012FB9FEDF70A84ED130A9FEDF50A2E
:101E100084ED0D0A9FEDF30A84ED0E0A9FEDF10AA1
:101E200084ED0F0A00258AE1EF48006801F049FEC1
:101E30009221EE4800680AF05EFE9221EB480068AD
:101E40000AF059FE062201A9E84800680AF043FE9C
:101E5000E548006801F044FE9DF80500000200B26C
:101E60009DF80410084300EE100AB8EEC00AE048DE
:101E7000D0ED000A20EE200A84ED010A9DF807004B
:101E8000000200B29DF80610084300EE100AB8EEFA
:101E9000C00AD748D0ED000A20EE200A84ED020ADD
:101EA0009DF80900000200B29DF80810084300EEFA
:101EB000100AB8EEC00ACE48D0ED000A20EE200A83
:101EC00084ED030AD4ED010A60EEA00A94ED021A33
:101ED000D4ED021A41EE210A94ED031AD4ED031A4F
:101EE00041EE210AB0EE600A0CF0E4FBB0EE408A4D
:101EF00094ED130A30EE080A84ED130ABD48006819
:101F000001F0DFFD8021B94800680AF0F4FD0822E5
:101F100001A9B64800680AF0DEFDB648006801F085
:101F2000DFFD9DF804000F284DD19DF80700000249
:101F300000B29DF80610084300EE100AB8EEC00A81
:101F4000AD48D0ED000A20EE200A84ED050A9DF888
:101F50000900000200B29DF80810084300EE100AC4
:101F6000B8EEC00AA448D0ED000A20EE200A84EDA5
:101F7000060A9DF80B00000200B29DF80A10084303
:101F800000EE100AB8EEC00A9B48D0ED000A20EE21
:101F9000200A84ED040A94ED0D0AD4ED050A30EE12
:101FA000200A84ED0D0A94ED0E0AD4ED060A30EEF7
:101FB000200A84ED0E0A94ED0F0AD4ED040A30EEE7
:101FC000200A84ED0F0AE5B9F0EE488AF0EE489A4F
:101FD00094ED050A8DED090A94ED050A8DED060ACA
:101FE00094ED060A8DED0A0A94ED060A8DED070AB6
:101FF00094ED040A8DED0B0A94ED040A8DED080AA8
:102000005BE0B4EEE88AF1EE10FA01DDF0EE488A0A
:10201000B4EEE98AF1EE10FA01D2F0EE489A94EDAE
:10202000050ADDED090AB4EEE00AF1EE10FA03DD6F
:1020300094ED050A8DED090A94ED050ADDED060A19
:10204000B4EEE00AF1EE10FA03D294ED050A8DED3C
:10205000060A94ED060ADDED0A0AB4EEE00AF1EE96
:1020600010FA03DD94ED060A8DED0A0A94ED060AD6
:10207000DDED070AB4EEE00AF1EE10FA03D294EDBA
:10208000060A8DED070A94ED040ADDED0B0AB4EEA5
:10209000E00AF1EE10FA03DD94ED040A8DED0B0A6F
:1020A00094ED040ADDED080AB4EEE00AF1EE10FA50
:1020B00003D294ED040A8DED080A38EEE99A002067
:1020C00012E009A901EB800191ED000A06A901EBDC
:1020D0008001D1ED000A30EE600A03A901EB800116
:1020E00081ED000A411CC8B20328EADBB6EE000A03
:1020F000B4EEC09AF1EE10FA1ADC9DED030ADFEDA2
:102100003F0AB4EEE00AF1EE10FA11DC9DED040A8C
:10211000DFED3A0AB4EEE00AF1EE10FA08DC9DEDCC
:10212000050ADFED360AB4EEE00AF1EE10FA00DD42
:102130000AE09FED330A01F077F9681C85B2314857
:1021400000888542FFF670AE00BFD4ED130A2D481B
:10215000008800EE100AB8EE400A80EE801A84ED86
:10216000131A002015E004F1340101EB8001D1EDD8
:10217000000A2449098800EE101AB8EE400A80EEE1
:10218000801A04F1340101EB800181ED001A411C39
:10219000C8B20328E7DB701C06B2B6EE000AB4EE44
:1021A000C09AF1EE10FA3FF70BAE94ED130ADFED93
:1021B000160A30EE600AB0EEC00AF6EE000AB4EE7F
:1021C000E00AF1EE10FAEEDC9DED030ADFED0B0AFA
:1021D0001CE00000AC38223BB016CE393F161B4144
:1021E0000AD7A33B0000000070030020A8020020D3
:1021F000A002002074030020A40200209A99193E36
:102200006F12033AF6020020CDCC1C41B4EEE00A76
:10221000F1EE10FAC7DC9DED040A5FED080AB4EE9A
:10222000E00AF1EE10FABEDC9DED050A5FED0D0A45
:10223000B4EEE00AF1EE10FAB5DC94ED0D0AB0EE62
:10224000C00ADFED150AB4EEE00AF1EE10FAAADCDE
:1022500094ED0E0AB0EEC00ADFED0F0AB4EEE00A0C
:10226000F1EE10FA9FDC94ED0F0AB0EEC00ADFED3C
:102270000A0AB4EEE00AF1EE10FA94DC00BF94ED25
:10228000130ADFED060A80EE801A84ED141A0CB0F2
:10229000BDEC068B70BD00000AD7233CC3F51C4182
:1022A000D2ED020A92ED021AB6EE000A00EEC10A61
:1022B000D2ED030A92ED031A00EEC10AD0ED000A36
:1022C00020EE200AD2ED010A92ED021A60EE810A98
:1022D00092ED001AD2ED031A41EE610A90ED011A57
:1022E00000EE810AD2ED010A92ED031A60EE810A36
:1022F00092ED001AD2ED021A41EE210A90ED021A77
:1023000000EE810AF0EE000A20EE200A81ED000ABC
:1023100092ED010AD2ED020A20EE200AD2ED000A67
:1023200092ED031A00EE810AD0ED000A60EE200A59
:1023300092ED011AD2ED011AB6EE000A01EE610A21
:10234000D2ED031A92ED032AB0EE401A01EEC21A42
:10235000D0ED011AB0EE600A01EE210AD2ED020AB8
:1023600092ED031A60EE810A92ED001AD2ED011A85
:1023700041EE610A90ED021A00EE810AF0EE000AC9
:1023800020EE200A81ED010A92ED010AD2ED030A46
:1023900020EE200AD2ED000A92ED021A00EEC10AE8
:1023A000D0ED000A20EE200AD2ED020A92ED031AC7
:1023B00060EE810A92ED001AD2ED011A41EE210A77
:1023C00090ED011A00EE810A92ED011AD2ED011A88
:1023D000F6EE000A41EE610A92ED021AD2ED021AFF
:1023E00041EE610A90ED021A00EE810AF0EE000A59
:1023F00020EE200A81ED020A704700BFFEE70000D0
:1024000010B5024802F0B4F810BD0000BC0B00206B
:1024100010B5024802F0ACF810BD0000E40B00203B
:1024200030B5034613B94FF6FF7030BD09E013F81D
:10243000014B82EA0400C0B2054D35F8100080EA75
:102440002222081EA1F10101F1D11046EDE70000A2
:10245000CC25010830B5034605E013F8010B80EAEE
:1024600002040448025D081EA1F10101F5D11046E5
:1024700030BD0000CC24010800E07047FDE70000FB
:1024800030B58BB005461948854202D10020069030
:1024900001E00E2006900020079001200890002007
:1024A00001900290039004900590012009900E2065
:1024B0000A9001A9284601F0E5FE044614B1204621
:1024C000FFF7DAFF284602F01AFB044614B1204653
:1024D000FFF7D2FF0221284601F01AFE044614B18C
:1024E0002046FFF7C9FF0BB030BD0000BC0B002039
:1024F00010B5016042600024C4608460036104750B
:1025000010BD000070B505460C46164609488542C8
:1025100005D1324628462369216806F02FF906487E
:10252000854205D1324628462369216806F026F9FE
:1025300070BD0000BC0B0020E40B0020F8B5054680
:102540000E4617466B463A463146284601F0F5FDE1
:10255000044614B12046FFF78FFFF8BD00487047CE
:10256000507C002070B52DED0A8B94B0FFF7F6FF7C
:10257000064600F087FE054600200DE0C0EBC001D6
:1025800001EB801106EB8101897B012903D014B096
:10259000BDEC0A8B70BD401C0428EFDB287840BBE3
:1025A0009FEDFE0AFE4806F006FB9FEDFC0AFD4883
:1025B00006F001FB9FEDF90AFB4806F0FCFA9FEDDF
:1025C000F70AFA4806F0F7FA9FEDF40AF84806F021
:1025D000F2FA9FEDF20AF74806F0EDFA9FEDEF0AE6
:1025E000F54806F0E8FA9FEDED0AF44806F0E3FA44
:1025F000CDE7F34BD3E90021D3E90203CDE90A0388
:10260000CDE90821EE4B10330FCB04AC0FC4E448E6
:10261000D0ED080AEB4890ED001A70EEC10AB0EE5A
:10262000600A0AF077FB8DED0C0ADE48D0ED080A4F
:10263000E44890ED011A70EEC10AB0EE600A0AF0AB
:1026400069FB8DED0D0AD848D0ED080ADD4890ED04
:10265000021A70EEC10AB0EE600A0AF05BFB8DED63
:102660000E0AD248D0ED080AD64890ED031A70EE53
:10267000C10AB0EE600A0AF04DFB8DED0F0AC848A2
:1026800090ED080AD04880ED000AC64890ED080A8F
:10269000CD4880ED010AC44890ED080ACA4880ED93
:1026A000020AC24890ED080AC74880ED030A95ED7A
:1026B000090A8DED100A95ED080A8DED110A95EDC8
:1026C000060A8DED120A95ED070A8DED130ABF4833
:1026D000D0ED009ABE48D0ED008AD5ED010A60EE3B
:1026E000A00A95ED021AD5ED021A41EE210AB0EECC
:1026F000600A0BF0DFFFB0EE408A95ED030AB0EE02
:10270000C09A69EEA90A48EEA80AB0EE600A0BF07A
:10271000D1FFB0EE48AA09EE00AA9FEDAE0AB4EED2
:10272000C0AAF1EE10FA02D29FEDAB0A01E09FEDD4
:10273000AB0AB0EE40BA002451E010A800EB8400D0
:10274000D0ED000AA64800EB840090ED001A70EE70
:10275000C10AB0EE600A0AF0AFFBB0EE409A2BEE71
:10276000090AB0EE408AB7EE000AB4EEC08AF1EE74
:1027700010FA04DDB7EE000AB0EE408A0AE0BFEEC0
:10278000000AB4EEC08AF1EE10FA03D2BFEE000ADE
:10279000B0EE408A924800EB840090ED000A30EEE3
:1027A000080A8F4800EB840080ED000A8C4800EB9B
:1027B0008400D0ED000AB0EE600A0AF0ABFA884857
:1027C00000EB840080ED000A854800EB840090ED6A
:1027D000000A10A800EB840080ED000A641C042CA1
:1027E000ABDB95ED0D0A8DED000A95ED0C0A8DED34
:1027F000010A95ED0A0A8DED020A95ED0B0A8DEDA1
:10280000030A0024FCE010A800EB8400D0ED000ACD
:102810000CA800EB840090ED001A70EEC10AB0EE37
:10282000600A0AF049FBF0EE40BA10A800EB840001
:1028300090ED000A30EE6B0AB0EE40CA10A901EB31
:102840008401D1ED000AB0EE600AC4EBC40101EBD3
:10285000841106EB810101F1980006F0A2FCC4EBA3
:10286000C40101EB841106EB810101F19800B0EE87
:102870004C0A06F093FCC4EBC40202EB841206EB94
:10288000820202F1EC01C4EBC40202EB841206EBFB
:10289000820202F1980006F04CFAC4EBC40101EB8D
:1028A000841106EB810101F1980006F02CFCB0EEDA
:1028B000408A2CB9B7EE000A28EE000AB0EE408A32
:1028C000012C05D1B7EE000A28EE000AB0EE408ACE
:1028D000022C05D1B7EE000A28EE000AB0EE408ABD
:1028E000032C05D1B7EE000A28EE000AB0EE408AAC
:1028F00008A951F82400B0EE480A06F05CF914B9B2
:102900004FF0FF3009E0012C01D1A01E05E0022CA0
:1029100001D1E01E01E04FF0FF3000EE100AB8EEEA
:10292000C09A694601EB8401D1ED000AB0EE600A5D
:10293000C4EBC40101EB841106EB810101F1140029
:1029400006F02FFC04A951F82410D1ED010A60EE25
:10295000890AB0EE600AC4EBC40101EB841106EBF6
:10296000810101F1140006F019FCC4EBC40202EB72
:10297000841206EB820202F16801C4EBC40202EB8E
:10298000841206EB820202F1140006F0D2F9C4EBC5
:10299000C40101EB841106EB810123E0000000007B
:1029A000C084002070840020D08300202084002078
:1029B000808300203083002090820020E08200206D
:1029C000201C0108141F0108F88000200C1F0108BA
:1029D000101F01080AD7233C17B7513A8FC2F53DA3
:1029E0000881002001F1140006F08DFB60EE09AAB9
:1029F00004A951F82400B0EE6A0A06F0DCF8641C61
:102A0000042CFFF600AF00BFC1E5000070B5FFF772
:102A1000A5FD044600F036FC0546002028709FED19
:102A2000FE0A85ED060A9FEDFC0A85ED070A9FED7B
:102A3000FA0A85ED080A9FEDF80A85ED090A9FED6F
:102A4000F60A85ED0A0A9FEDF40A85ED0B0A9FED63
:102A5000F20A85ED0C0A9FEDF00A85ED0D0A00BF24
:102A600007E09FEDED0AED4901EB800181ED000AE1
:102A7000401C0428F5DB002021E00121C0EBC0024E
:102A800002EB801204EB82029173C0EBC00202EBF6
:102A9000801204EB8202D1739FEDDF0AC0EBC0010C
:102AA00001EB801104EB810181ED000A0021C0EBF4
:102AB000C00202EB801204EB82025173401C042816
:102AC000DBDB9FEDD50AD64806F075F89FEDD20AFC
:102AD000D44806F070F89FEDD00AD34806F06BF8A2
:102AE0009FEDCD0AD14806F066F89FEDCB0AD0489D
:102AF00006F061F89FEDC80ACE4806F05CF89FED3D
:102B0000C60ACD4806F057F89FEDC30ACB4806F039
:102B100052F8002614E0C6EBC60101EB861104EB67
:102B2000810101F1980006F0B3FAC6EBC60101EB92
:102B3000861104EB810101F1140006F0A9FA761C5C
:102B4000042EE8DBBE48D0ED105AB0EE655AD0ED49
:102B50000F5AF0EE654AD0ED0B5AB0EE654AD0ED53
:102B60000A5AF0EE653AD0ED065AB0EE653AD0ED6D
:102B7000055AF0EE652AD0ED045AB0EE652AD0ED84
:102B8000035AF0EE651AD0ED025AB0EE651AD0ED98
:102B9000015AF0EE650AD0ED005AB0EE650A002148
:102BA00004F1680006F0B5FAA648D0ED105AB0EE70
:102BB000655AD0ED0F5AF0EE654AD0ED0B5AB0EEE3
:102BC000654AD0ED0A5AF0EE653AD0ED065AB0EEFD
:102BD000653AD0ED055AF0EE652AD0ED045AB0EE14
:102BE000652AD0ED035AF0EE651AD0ED025AB0EE28
:102BF000651AD0ED015AF0EE650AD0ED005AB0EE3C
:102C0000650A002104F1EC0006F083FA8E48D0ED4D
:102C1000105AB0EE655AD0ED0F5AF0EE654AD0ED7D
:102C20000B5AB0EE654AD0ED0A5AF0EE653AD0ED97
:102C3000065AB0EE653AD0ED055AF0EE652AD0EDB1
:102C4000045AB0EE652AD0ED035AF0EE651AD0EDC5
:102C5000025AB0EE651AD0ED015AF0EE650AD0EDD9
:102C6000005AB0EE650A002104F5C27006F051FA70
:102C70007648D0ED105AB0EE655AD0ED0F5AF0EE0E
:102C8000654AD0ED0B5AB0EE654AD0ED0A5AF0EE27
:102C9000653AD0ED065AB0EE653AD0ED055AF0EE41
:102CA000652AD0ED045AB0EE652AD0ED035AF0EE55
:102CB000651AD0ED025AB0EE651AD0ED015AF0EE69
:102CC000650AD0ED005AB0EE650A002104F50270E5
:102CD00006F01FFA5E48D0ED105AB0EE655AD0EDFE
:102CE0000F5AF0EE654AD0ED0B5AB0EE654AD0EDC2
:102CF0000A5AF0EE653AD0ED065AB0EE653AD0EDDC
:102D0000055AF0EE652AD0ED045AB0EE652AD0EDF2
:102D1000035AF0EE651AD0ED025AB0EE651AD0ED06
:102D2000015AF0EE650AD0ED005AB0EE650A0021B6
:102D300004F5287006F0EDF94648D0ED105AB0EED3
:102D4000655AD0ED0F5AF0EE654AD0ED0B5AB0EE51
:102D5000654AD0ED0A5AF0EE653AD0ED065AB0EE6B
:102D6000653AD0ED055AF0EE652AD0ED045AB0EE82
:102D7000652AD0ED035AF0EE651AD0ED025AB0EE96
:102D8000651AD0ED015AF0EE650AD0ED005AB0EEAA
:102D9000650A002104F5497006F0BBF92E48D0ED14
:102DA000105AB0EE655AD0ED0F5AF0EE654AD0EDEC
:102DB0000B5AB0EE654AD0ED0A5AF0EE653AD0ED06
:102DC000065AB0EE653AD0ED055AF0EE652AD0ED20
:102DD000045AB0EE652AD0ED035AF0EE651AD0ED34
:102DE000025AB0EE651AD0ED015AF0EE650AD0ED48
:102DF000005AB0EE650A002104F56F7006F089F9FB
:102E00001648D0ED105AB0EE655AD0ED0F5AF0EEDC
:102E1000654AD0ED0B5A23E0000000000881002035
:102E2000C084002070840020D083002020840020F3
:102E3000808300203083002090820020E0820020E8
:102E4000EC2301089C2301084C230108FC22010803
:102E50000C220108BC210108AC2201085C220108F7
:102E6000B0EE654AD0ED0A5AF0EE653AD0ED065A5A
:102E7000B0EE653AD0ED055AF0EE652AD0ED045A71
:102E8000B0EE652AD0ED035AF0EE651AD0ED025A85
:102E9000B0EE651AD0ED015AF0EE650AD0ED005A99
:102EA000B0EE650A002104F5886006F032F970BDC5
:102EB00010B5FFF753FB044600200AE0C0EBC00149
:102EC00001EB801104EB8101C97B012900D010BD09
:102ED000401C0428F2DB044805F02BFE034805F0F3
:102EE00028FE00BFF3E700008C810020C081002095
:102EF00000B5014600F0C6F90246117000BD0000A1
:102F000010B52DED108B82B0F0EE408AB0EE609AD5
:102F1000F0EE419A00F0B6F90446C94890ED000A77
:102F2000F0EE40AAC74890ED000AB0EE40BA9FED1F
:102F3000C60AF0EE40BA9FEDC40AB0EE40CA9FED5B
:102F4000C20AB0EE408A207830B1012828D0022889
:102F50003CD003287ED16CE09FEDBB0A84ED060ACD
:102F60009FEDB90A84ED070A9FEDB70A84ED080AC0
:102F70009FEDB50A84ED090A9FEDB30A84ED0A0AB4
:102F80009FEDB10A84ED0B0A9FEDAF0A84ED0C0AA8
:102F90009FEDAD0A84ED0D0A02B0BDEC108B10BDA3
:102FA000AA4890ED000A28EE800AF0EE40BAA84840
:102FB00090ED000A29EE000AB0EE40CAA54890ED57
:102FC000000A29EE800AB0EE408A74E09F4890ED36
:102FD000000A28EE800AF0EE40BA9D4890ED000A03
:102FE00029EE000AB0EE40CA9B4890ED000A29EE97
:102FF000800AB0EE408A994890ED000AB4EEC08A8B
:10300000F1EE10FA04DD90ED000AB0EE408A0FE018
:10301000924890ED000AB1EE400AB4EEC08AF1EE9B
:1030200010FA05D290ED000AB1EE400AB0EE408AE7
:1030300041E08B4890ED6B0ADFED8A0A20EE200A12
:10304000DFED890A80EE201A84ED051A7F4890EDA5
:10305000000A00E02EE028EE800AB0EE40EA7C484C
:1030600090ED000A29EE000AF0EE40EAD4ED050AE0
:10307000B0EE600A0BF04CF9B0EE40FAD4ED050A60
:10308000B0EE600A0BF04EFAF0EE40FA2EEE0F0AA8
:103090000EEEEF0AF0EE40BA2EEE2F0A0EEE8F0A79
:1030A000B0EE40CA6C4890ED000A29EE800AB0EEFE
:1030B000408A00E070E700BFC4ED01BA84ED02CAA7
:1030C00084ED038A6948D0ED080A694890ED001A3A
:1030D00070EEC10AB0EE600A09F01CFEF0EE40CAC4
:1030E0006448D0ED080A624890ED011A70EEC10AFA
:1030F000B0EE600A09F00EFEB0EE40DA5E48D0EDA8
:10310000080A5B4890ED021A70EEC10AB0EE600A40
:1031100009F000FEF0EE40DA5848D0ED080A5448B5
:1031200090ED031A70EEC10AB0EE600A09F0F2FDEC
:10313000B0EE40AA9FED520A8DED010AB0EEEB0A07
:10314000DFED4F0AB4EEE00AF1EE10FA2AD2B0EE4B
:10315000CC0ADFED4B0AB4EEE00AF1EE10FA21D210
:10316000B0EEC80ADFED460AB4EEE00AF1EE10FA5E
:1031700018D2C4ED09CA84ED08DAC4ED06DA84ED8C
:1031800007AA9FED310A84ED0A0A9FED2F0A84ED0C
:103190000B0A9FED2D0A84ED0C0A9FED2B0A84ED9E
:1031A0000D0AF9E604F1340204F124010020F0EEE6
:1031B0006C2AB0EE482AF0EE4C1AB0EE6B1AF0EE24
:1031C0004B0AB1EE6A0A09F0C7FD04F1300204F1BE
:1031D00020010120F0EE4D2AB0EE482AF0EE4C1A04
:1031E000B0EE6B1AF1EE4B0AB1EE6A0A09F0B4FDCB
:1031F00004F1280204F118010220F0EE6D2AB0EE6D
:10320000482AF0EE4C1AB0EE6B1AF0EE4B0AB0EE14
:103210006A0A09F0A1FD04F12C0204F11C0103204B
:10322000F0EE4A2AB0EE482AF0EE4C1AB0EE6B1AD5
:10323000F1EE4B0AB0EE6A0A09F08EFD00BFABE674
:103240000C1F0108101F010800000000EC1E0108FF
:10325000F01E0108F41E0108F81E0108FC1E0108FA
:10326000D08D0020DA0F494000003443C084002094
:10327000141F010870840020D083002020840020C7
:103280000AD7233C00487047C080002000BFFFF7EA
:1032900069F9FFF70DFE02200BF0B5FCF7E704E03B
:1032A00006F0C4FA01200BF0AEFCF9E710B50248B5
:1032B00001F0C6FC10BD0000940F002010B50248BC
:1032C00001F0BEFC10BD0000F40F002010B5024854
:1032D00001F0B6FC10BD0000D40E002010B502486D
:1032E00001F0AEFC10BD0000340F0020014608784C
:1032F00010381823B0FBF3F20848805CC865032A35
:1033000005D908686FF30900001D886503E00868A7
:103310006FF309008865886D70470000881A0108FE
:10332000014600208A6A8B69CBB932B1012A0DD0DF
:10333000022A03D0032A10D10EE000BFCB6A03F0AB
:103340008073B3F1807F00D1012007E0CB6AB3F135
:10335000C07F00D1012001E000E000BF34E08B69B4
:10336000B3F5005F1AD132B1012A07D0022A03D087
:10337000032A11D10AE000BF01200EE0CB6A03F05E
:103380008073B3F1807F00D1012006E0CB6AB3F1F6
:10339000C07F00D1012000E000BF15E032B1012A5A
:1033A00005D0022A04D0032A0CD103E000BF00BFDD
:1033B000012008E0CB6A03F08073B3F1807F00D175
:1033C000012000E000BF00BF704730B504682468EA
:1033D00024F4802405682C60046863608468402CB1
:1033E00004D10468A2600468E16003E00468A1609D
:1033F0000468E26030BD000008B5084840680090ED
:10340000074900980968884204D206480068401CB1
:103410000449086002490098086008BD001000E0F7
:10342000A00300209C0300200C494868F0EE400AED
:1034300000BF0A494968091A01EE101AF8EE411A4C
:10344000074991ED001AB8EE411A20EE811AF4EE08
:10345000C11AF1EE10FAECD370470000001000E042
:103460009003002010B52DED028B82B004460E486B
:103470004068019020680199081A00EE100AF8EEE1
:10348000400A0A4890ED000AB8EE400A80EE801A21
:10349000B0EE418A01982060FFF7AEFFB0EE480A17
:1034A00002B0BDEC028B10BD001000E090030020C4
:1034B00010B52DED028B00F059F80F4890ED000A81
:1034C000B8EE400A808800EE900AF8EE600A9FEDA0
:1034D0000B1A00EE810A0848C08800EE900AF8EE48
:1034E000600A9FED071A00EE810AB0EE408AB0EE46
:1034F000480ABDEC028B10BD880300206F12833A8E
:10350000BD3786351249096841F08071104A116053
:103510000021104A51601146096841F00101116013
:103520000D4941430D4A1160114609684FF47A7202
:10353000B1FBF2F10A4A116008490968064AB1FB79
:10354000F2F1084A11600021074A1160704700003B
:10355000FCED00E0001000E040420F00900300206E
:1035600094030020980300209C03002038B52948CC
:1035700040680090FFF740FF274800684FF0FF3198
:10358000A0FB01310098181841F10001234A03C241
:10359000234800232149026803C9FCF718FF214A88
:1035A00003C220480CC81E4800680024A2FB001576
:1035B00003FB005002FB04021848D0E90030591AFE
:1035C00060EB0200184AC2E900101648006817496B
:1035D0000860174800231449026803C9FCF7F7FE86
:1035E00012498880084680881149096841430E487D
:1035F000D0E90030591A60F100000E4AC2E900100B
:103600000D4800230B49026803C9FCF7E0FE074997
:10361000C88038BD001000E09C030020A8030020F3
:1036200090030020B0030020B8030020880300208E
:1036300094030020C003002098030020704700007E
:1036400000487047888B00202DE9F04F8FB004466A
:103650000D4616461F46DDE91AABDDE91889002242
:10366000DDE91C1004238DE8E00FCDE90721099066
:10367000012221460BA807F00FFA012802D00FB053
:10368000BDE8F08F0BA807F083F900BFF7E72DE93D
:10369000F0478EB004460D4616461F46DDE9179AE0
:1036A000DDF858800020CDE907A0099002900223A0
:1036B00001222146CDE90589CDE90307CDE9005670
:1036C0000AA807F0E9F9012802D00EB0BDE8F0879A
:1036D0000AA807F05DF900BFF7E72DE9F04F2DEDDF
:1036E000028B8BB004460D4616461F46B0EE408A4C
:1036F000DDE918ABDDE91689B0EE480A2B46012258
:10370000214607A88DE8C00F07F098F9012804D0DA
:103710000BB0BDEC028BBDE8F08F07A807F038F9BD
:1037200000BFF5E72DE9F04F8FB004460D46164671
:103730001F46DDE91AABDDE918890020CDE90690C6
:103740000290034601222146CDE908ABCDE9047879
:10375000CDE9005603900BA807F09EF9012802D08E
:103760000FB0BDE8F08F0BA807F012F900BFF7E724
:103770002DE9F04F93B004460D4616461F46DDE98D
:103780001CABDDF87C8007F0A5F84046FCF796FE00
:1037900000F0FF091E982B46012221468DE8C00E3D
:1037A00005900FA807F0ECF9012802D013B0BDE88E
:1037B000F08F4A46414606A8FCF79FFE06A90FA8CF
:1037C00007F064FA00BFF1E738B5094C002084F82F
:1037D000CC0102208DF8000000208DF80100054A80
:1037E0009378218910886A4607F072FA38BD000084
:1037F00038890020481D01082DE9F04F8FB004469C
:103800000D4616461F46DDE91AABDDE91889002290
:10381000DDE91C1004238DE8E00FCDE907210990B4
:10382000022221460BA807F037F9012802D00FB079
:10383000BDE8F08F0BA807F0ABF800BFF7E72DE964
:10384000F04F2DED028B8BB004460D4616461F46F9
:10385000B0EE408ADDE918ABDDE91689B0EE480A22
:103860002B460222214607A88DE8C00F07F0E6F894
:10387000012804D00BB0BDEC028BBDE8F08F07A887
:1038800007F086F800BFF5E72DE9F04F8FB004464A
:103890000D4616461F46DDE91AABDDE91889002002
:1038A000CDE906900290034602222146CDE908ABFD
:1038B000CDE90478CDE9005603900BA807F0ECF8A9
:1038C000012802D00FB0BDE8F08F0BA807F060F818
:1038D00000BFF7E710B5082001F0DAFB10BD10B506
:1038E000102001F0D5FB10BD10B5202001F0D0FB59
:1038F00010BDD2ED020A92ED021AB6EE000A00EEF9
:10390000C10AD2ED030A92ED031A00EEC10AD0ED0E
:10391000000A20EE200AD2ED010A92ED021A60EEB2
:10392000810A92ED001AD2ED031A41EE210A90EDC0
:10393000011A00EE810AD2ED010A92ED031A60EE3F
:10394000810A92ED001AD2ED021A41EE610A90ED61
:10395000021A00EE810AF0EE000A20EE200A81ED44
:10396000000A92ED010AD2ED020A20EE200AD2ED01
:10397000000A92ED031A00EEC10AD0ED000A60EED3
:10398000200A92ED011AD2ED011AB6EE000A01EEFC
:10399000610AD2ED031A92ED032AB0EE401A01EE4D
:1039A000C21AD0ED011AB0EE600A01EE210AD2ED82
:1039B000020A92ED031A60EE810A92ED001AD2ED2E
:1039C000011A41EE210A90ED021A00EE810AF0EE92
:1039D000000A20EE200A81ED010A92ED010AD2EDE3
:1039E000030A20EE200AD2ED000A92ED021A00EE40
:1039F000810AD0ED000A20EE200AD2ED020A92EDF3
:103A0000031A60EE810A92ED001AD2ED011A41EE1E
:103A1000610A90ED011A00EE810A92ED011AD2EDD1
:103A2000011AF6EE000A41EE610A92ED021AD2ED99
:103A3000021A41EE610A90ED021A00EE810AF0EEE0
:103A4000000A20EE200A81ED020A704772B600BF1C
:103A5000FEE7F0EE400A90ED000AB5EEC00AF1EE86
:103A600010FA08D990ED000AB7EE001AB4EEC10AB8
:103A7000F1EE10FA02DBB0EE600A704790ED000A3A
:103A8000B7EE001A31EE400A91ED011A20EE010A5C
:103A900090ED001A01EE200A81ED000A91ED000A76
:103AA00081ED010A91ED000AE7E780ED000A704719
:103AB00010B50446A188206801F0F2FB2074207C38
:103AC00010BD10B5044601F0F9FBA060A1880022EA
:103AD000206801F0EDFB2046FFF7EAFF207410BDDF
:103AE00010B5044601F0EAFBA060A188012220681D
:103AF00001F0DEFB2046FFF7DBFF207410BD0A78E3
:103B000002704A7842708A788270CA7802710B79A2
:103B100043714A7982718B79C371CA7902720B7AC7
:103B200043724A7A82728B7AC372CA7A02730B7BAF
:103B300043734A7B82738A7BC2730A780AB9002274
:103B400002704A780AB9002242708A780AB90022C3
:103B50008270CA780AB9002202710A790AB9002370
:103B600043714A790AB9002282718A790AB900231D
:103B7000C371CA790AB9002202720A7A0AB900230B
:103B800043724A7A0AB9002282728A7A0AB90023F9
:103B9000C372CA7A0AB9002202730A7B0AB90023E7
:103BA00043734A7B0AB9002282738A7B0AB90022D6
:103BB000C273704770B52DED028B00F04DF80446CE
:103BC00003F0B0FA0546A079012802D0BDEC028BC3
:103BD00070BDD4ED000AB0EE600A04F1900005F06B
:103BE000E0FAD5ED1C0A1A4890ED001A70EE810A31
:103BF000B0EE600A04F1900005F0D0FA04F1E4019F
:103C000004F1900005F095F804F1900005F07BFABE
:103C1000B0EE408A04F10C0005F0C3FAD5ED050AB8
:103C2000B0EE600A04F10C0005F0B8FA04F160018E
:103C300004F10C0005F07DF804F10C0005F063FAC6
:103C4000B0EE408A034804F0B6FF00BFBEE70000B4
:103C5000E80300201085002000487047C877002046
:103C600010B5FFF7F9FF04460120A071E0719FED48
:103C7000350A84ED000A002060713348D0ED105AF7
:103C8000B0EE655AD0ED0F5AF0EE654AD0ED0B5A02
:103C9000B0EE654AD0ED0A5AF0EE653AD0ED065A1C
:103CA000B0EE653AD0ED055AF0EE652AD0ED045A33
:103CB000B0EE652AD0ED035AF0EE651AD0ED025A47
:103CC000B0EE651AD0ED015AF0EE650AD0ED005A5B
:103CD000B0EE650A002104F1600005F01AFA1B48F5
:103CE000D0ED105AB0EE655AD0ED0F5AF0EE654A9D
:103CF000D0ED0B5AB0EE654AD0ED0A5AF0EE653AB7
:103D0000D0ED065AB0EE653AD0ED055AF0EE652AD0
:103D1000D0ED045AB0EE652AD0ED035AF0EE651AE4
:103D2000D0ED025AB0EE651AD0ED015AF0EE650AF8
:103D3000D0ED005AB0EE650A002104F1E40005F070
:103D4000E8F910BD000000003C1F01088C1F0108AD
:103D500070B5FFF781FF044600F08CF80546E07966
:103D6000012803D09FED070A85ED100AE87B0128A2
:103D700003D09FED040A84ED0E0A034804F0D9FE37
:103D800070BD000000000000F481002000B5FFF7C6
:103D900063FF0146D1ED000A70EE800AC1ED000A12
:103DA00000BD000010B52DED028B00F063F8044655
:103DB000A07B012802D0BDEC028B10BD2848D0EDBD
:103DC000080A284890ED001A70EEC10AB0EE600AA9
:103DD00000F0D4F8B0EE408A9FED230AB4EEC08A1A
:103DE000F1EE10FA05DD9FED210A38EE400AB0EE43
:103DF000408A9FED1F0A04F1980005F0D2F9B0EE59
:103E0000480A04F1980005F0C9F904F1EC0104F145
:103E1000980004F08EFF04F1980005F074F9F0EEBC
:103E2000408A04F1140005F0BCF90D48D0ED010AF8
:103E3000B0EE600A04F1140005F0B0F904F1680175
:103E400004F1140004F075FF04F1140005F05BF9AF
:103E5000F0EE408A024804F0AEFE00BFABE700007F
:103E600060850020381F0108000034430000B4437F
:103E70000000000000487047DC78002010B5FFF714
:103E8000F9FF04460120A073E0739FED380A84ED2A
:103E9000000A002060739FED350A354804F08BFE60
:103EA0003448D0ED105AB0EE655AD0ED0F5AF0EE0E
:103EB000654AD0ED0B5AB0EE654AD0ED0A5AF0EEE5
:103EC000653AD0ED065AB0EE653AD0ED055AF0EEFF
:103ED000652AD0ED045AB0EE652AD0ED035AF0EE13
:103EE000651AD0ED025AB0EE651AD0ED015AF0EE27
:103EF000650AD0ED005AB0EE650A002104F16800B1
:103F000005F007F91C48D0ED105AB0EE655AD0ED17
:103F10000F5AF0EE654AD0ED0B5AB0EE654AD0ED7F
:103F20000A5AF0EE653AD0ED065AB0EE653AD0ED99
:103F3000055AF0EE652AD0ED045AB0EE652AD0EDB0
:103F4000035AF0EE651AD0ED025AB0EE651AD0EDC4
:103F5000015AF0EE650AD0ED005AB0EE650A002174
:103F600004F1EC0005F0D5F810BD000000000000E1
:103F700060850020DC1F01082C20010805E0DFED32
:103F80000D0A70EE200AB0EE600AB5EEC00AF1EE3E
:103F900010FAF4D305E0DFED070A70EE600AB0EE28
:103FA000600ADFED040AB4EEE00AF1EE10FAF2DA8C
:103FB000704700000000B44300B5FFF75BFF014607
:103FC00081ED000A00BD000070B52DED028BB0EE52
:103FD000408A05F003FC0546FFF73EFE0446E87DF7
:103FE000012803D11648D0ED008A02E01548D0ED33
:103FF000008A04F1900005F089F8B4EEE80AF1EEC9
:1040000010FA04DDB5EEC08AF1EE10FA10DC04F10E
:10401000900005F07BF80C48D0ED000AB4EEE00A01
:10402000F1EE10FA09D2B5EEC08AF1EE10FA04D220
:104030009FED060ABDEC028B70BDB0EE480AF9E7B1
:10404000DC030020D8030020E00300200000000073
:1040500070B52DED028BB0EE408A05F0BFFB044633
:1040600003F060F80546E07D012804D1B0EE480A6F
:10407000BDEC028B70BD95ED1F0AD4ED040A30EE45
:10408000600A1448D0ED000AF1EE600AB4EEE00ACE
:10409000F1EE10FA04D2B5EEC08AF1EE10FA12DC9D
:1040A00095ED1F0AD4ED040A30EE600A0948D0ED00
:1040B000000AB4EEE00AF1EE10FA07DDB5EEC08AB0
:1040C000F1EE10FA02D29FED040AD1E7B0EE480AF1
:1040D000CEE70000E40300200000000004F06EFDC5
:1040E00000BF0A4809F02CF9084807F09BFF08F0C8
:1040F000C9FCFFF75FFDFFF755FE08F08FF8FFF7EB
:1041000027FE01200AF07FFDEBE700008677002004
:1041100010B5024692F82030012B01D0022B06D1B7
:1041200010684069084314686061002010BD506A3F
:1041300040F4802050620120F8E7F0B504460D46B7
:104140001E4694F8207020688368A86800B900E0D3
:1041500000BF012F01D0022F7DD103F0806030B964
:1041600003F0006018B903F0805000287ED0C3F33C
:104170000161012088403060A86860B9B5F800C0CE
:10418000E86840EA4C5C206800F5C07000EB011064
:10419000C0F800C00FE0D5E901C040EACC00D5F876
:1041A0000CC040EA0C00D4F800C00CF5C07C0CEB4D
:1041B000011CCCF80000D5F810C0206800F5C070D4
:1041C00000EB0110C0F804C0287D01280ED1206842
:1041D00000F5C07000EB0110406840F4807C20685E
:1041E00000F5C07000EB0110C0F804C0D0790006E3
:1041F00092F806C040EA0C4092F805C040EA0C2054
:1042000092F804C040EA0C00D4F800C00CF5C07C61
:104210000CEB011CCCF80C00D078000692F802C020
:1042200040EA0C4092F801C040EA0C2092F800C02D
:1042300040EA0C00D4F800C00CF5C07C0CEB011C6B
:10424000CCF80800206800F5C07000EB0110006891
:1042500040F0010C01E00FE008E0206800F5C070BC
:1042600000EB0110C0F800C00020F0BD606A40F40F
:10427000001060620120F8E7606A40F4802060620C
:104280000120F2E7F0B504460A4694F82050012DCB
:1042900001D0022D7ED1424901F50071086840F03D
:1042A00001000860086820F47C5008600868566ABD
:1042B00040EA06200860107D00F01F06012000FA89
:1042C00006F3C8699843C861A1F50071D069C8B9FF
:1042D000D1F80C029843C1F80C02908880B29689FC
:1042E00040EA064601F51070576940F837601088BB
:1042F00080B2168940EA064601F51070576900EB56
:10430000C7004660D069012819D1D1F80C021843C2
:10431000C1F80C02908880B2168840EA064601F582
:104320001070576940F83760908980B2168940EA6A
:10433000064601F51070576900EBC70046609069AA
:1043400028B9D1F804029843C1F8040204E0D1F876
:1043500004021843C1F80402106928B9D1F8140204
:104360009843C1F8140204E0D1F814021843C1F8CC
:104370001402106A012804D1D1F81C021843C1F8B4
:104380001C02D1F8000220F00100C1F80002002058
:10439000F0BDFFE7606A40F4802060620120F7E72B
:1043A00000640040704770B5044694F82050012D19
:1043B00001D0022D7DD151B92068C06800F0030002
:1043C00080B9606A40F400106062012070BD20680E
:1043D000006900F0030028B9606A40F400106062D0
:1043E0000120F3E7206800F5D87000EB01100068A9
:1043F00000F004009060906840B9206800F5D87023
:1044000000EB01100068400D106007E0206800F527
:10441000D87000EB01100068C0085060206800F5FB
:10442000D87000EB0110006800F00200D060206836
:1044300000F5D87000EB0110406800F00F0008286C
:1044400002D30820106108E0206800F5D87000EB66
:104450000110406800F00F001061206800F5D8706E
:1044600000EB0110406800F47F40000A9061206872
:1044700000F5D87000EB01104068000C5061206816
:1044800000F5D87000EB011080681870206800F506
:10449000D87000EB0110806800F47F40000A58706B
:1044A000206800F5D87000EB0110806800F47F00F0
:1044B00000E03CE0000C9870206800F5D87000EB3C
:1044C00001108068000ED870206800F5D87000EBED
:1044D0000110C0681871206800F5D87000EB011059
:1044E000C06800F47F40000A5871206800F5D87059
:1044F00000EB0110C06800F47F00000C9871206888
:1045000000F5D87000EB0110C068000ED87131B909
:104510002068C06840F020002668F06005E0206850
:10452000006940F020002668306100204EE7606A94
:1045300040F480206062012048E70146002091F8A5
:104540002020012A01D0022A11D10B689B6803F0B8
:10455000806303B1401C0B689B6803F0006303B1E8
:10456000401C0B689B6803F0805303B1401C7047EC
:104570002DE9F05F04460025206846692068D0F8E0
:104580000490206887682068D0F80CA02068D0F8D4
:1045900010B02068D0F8188006F00100002855D02F
:1045A00007F00100C0B101202168886007F0020017
:1045B00018B1204600F0D3FA0EE007F0040010B165
:1045C00045F4006508E007F0080010B145F4805597
:1045D00002E0204600F0C2FA07F48070C8B14FF440
:1045E00080702168886007F4007018B1204600F0E0
:1045F000B8FA0EE007F4806010B145F4005508E009
:1046000007F4006010B145F4804502E0204600F058
:10461000A7FA07F48030C8B14FF480302168886071
:1046200007F4003018B1204600F09DFA0EE007F4C0
:10463000802010B145F4004508E007F4002010B1D7
:1046400045F4803502E0204600F08CFA06F00800C0
:1046500038B10AF0100020B145F40075102021682F
:10466000C86006F0040040B10AF0080028B1082034
:104670002168C860204600F00DFA06F0020038B14B
:104680002068C06800F0030010B1204600F004FA72
:1046900006F0400038B10BF0100020B145F4806501
:1046A00010202168086106F0200040B10BF00800DE
:1046B00028B1082021680861204600F005FA06F0BC
:1046C000100038B12068006900F0030010B12046E6
:1046D00000F0FCF906F4003040B109F0100028B1F8
:1046E000102021684860204600F008FA06F4803067
:1046F00040B109F0080028B1082021684860204630
:1047000000F032FA06F4004088B309F0040078B3F0
:1047100006F4807020B108F0010008B145F00105F1
:1047200006F4007020B108F0020008B145F002055F
:1047300006F4806020B108F0040008B145F00405DB
:1047400006F40060A0B108F0700088B108F07000B5
:10475000402817D006DC10280BD020280CD0302899
:1047600019D10CE0502810D0602814D110E01DE0C1
:1047700019E045F008050FE045F010050CE045F0A4
:10478000200509E045F0400506E045F0800503E01E
:1047900045F4807500E000BF00BF2068806920F00C
:1047A0007000216888610420216848602DB1606A2A
:1047B000284360622046FFF7F5FDBDE8F09F70B525
:1047C00004460CB9012070BD94F8200010B92046B1
:1047D00000F0B0F82068006840F00100216808602F
:1047E00000F06CFD05460DE000F068FD401B0A2856
:1047F00008D9606A40F400306062052084F8200027
:104800000120E0E72068406800F001000028EBD0BC
:104810002068006820F002002168086000F04EFD6A
:1048200005460DE000F04AFD401B0A2808D9606AE1
:1048300040F400306062052084F820000120C2E7C7
:104840002068406800F002000028EBD1207E01289B
:1048500006D12068006840F080002168086005E00B
:104860002068006820F0800021680860607E0128D0
:1048700006D12068006840F040002168086005E02B
:104880002068006820F0400021680860A07E0128B0
:1048900006D12068006840F020002168086005E02B
:1048A0002068006820F0200021680860E07E012870
:1048B00006D12068006820F010002168086005E03B
:1048C0002068006840F0100021680860207F0128FF
:1048D00006D12068006840F008002168086005E003
:1048E0002068006820F0080021680860607F0128C7
:1048F00006D12068006840F004002168086005E0E7
:104900002068006820F0040021680860D4E90201F2
:10491000084321690843616908436168491E0843E7
:104920002168C86100206062012084F82000002016
:1049300049E7000010B586B00446142101A8FBF732
:104940007DFE4E492068884241D14D480068401C98
:104950004B4908600846006801280FD100BF0020BD
:1049600000904848006840F00070464908600846DA
:10497000006800F00070009000BF00BF00BF002082
:10498000009040481038006840F008003D49103958
:1049900008600846006800F00800009000BF00BFF3
:1049A0000320019002200290002003900320049035
:1049B0000920059001A9344800F078FB0022062167
:1049C000142000F043FD142000F02CFD54E02F498A
:1049D0002068884250D100BF00200090294800681C
:1049E00040F08060274908600846006800F0806059
:1049F000009000BF00BF22480068401C20490860AA
:104A00000846006801280FD100BF002000901D4813
:104A1000006840F000701B4908600846006800F01C
:104A20000070009000BF00BF00BF0020009015483C
:104A30001038006840F0020012491039086008463A
:104A4000006800F00200009000BF00BF60200190ED
:104A5000022002900020039003200490092005907A
:104A600001A90B4800F022FB00220621402000F0A3
:104A7000EDFC402000F0D6FC06B010BD0064004004
:104A80002800002040380240000C0240006800402E
:104A9000000402407047000070B50546084B094A03
:104AA00000212846FFF77FFC044614B12046FDF79D
:104AB000E3FC034A03492846FDF724FD70BD0000CE
:104AC000788C00205C8C00207047000070B5054693
:104AD000084B094A01212846FFF765FC044614B13A
:104AE0002046FDF7C9FC034A03492846FDF70AFDA5
:104AF00070BD0000788C00205C8C0020704770B581
:104B0000044694F82000012822D1022084F82000D5
:104B10002068006820F001002168086000F0CEFBEA
:104B200005460DE000F0CAFB401B0A2808D9606A60
:104B300040F400306062052084F82000012070BD40
:104B40002068406800F001000028EBD16062F6E7C1
:104B5000606A40F4002060620120F0E7704770470F
:104B60007047704770477047704770B50446A56D31
:104B700000F0A4FB064694F83500022808D08020F7
:104B8000606500BF002084F8340000BF012070BDC4
:104B90002068006820F016002168086020684069DD
:104BA00020F0800021684861206C08B9A06C28B111
:104BB0002068006820F0080021680860206800680C
:104BC00020F001002168086010E000F077FB801BF6
:104BD00005280BD920206065032084F8350000BF2C
:104BE000002084F8340000BF0320D0E7206800686C
:104BF00000F001000028E8D194F85C103F208840C4
:104C0000A860012084F8350000BF002084F834003B
:104C100000BF00BFBBE7014691F83500022803D072
:104C20008020486501207047052081F8350008681C
:104C3000006820F001000A6810600020F3E700001F
:104C4000F8B50446002000908C4800684FF41651D7
:104C5000B0FBF1F7A56D2E6894F85C100820884031
:104C6000304098B12068006800F0040070B12068FE
:104C7000006820F004002168086094F85C100820A7
:104C80008840A860606D40F00100606594F85C1099
:104C900001208840304068B12068406900F0800001
:104CA00040B194F85C1001208840A860606D40F02D
:104CB0000200606594F85C1004208840304068B1C0
:104CC0002068006800F0020040B194F85C100420F5
:104CD0008840A860606D40F00400606594F85C1046
:104CE00010208840304078B32068006800F0080049
:104CF00050B394F85C1010208840A86020680068C9
:104D000000F4802080B12068006800F4002028B9F9
:104D1000206CC8B12046216C884715E0A06C98B182
:104D20002046A16C88470FE02068006800F480707E
:104D300028B92068006820F0080021680860206C0D
:104D400010B12046216C884794F85C1020208840E0
:104D50003040002865D02068006800F0100000286E
:104D60005FD094F85C1020208840A86094F835004B
:104D7000052828D12068006820F016002168086006
:104D80002068406920F0800021684861206C08B9E3
:104D9000A06C28B12068006820F008002168086035
:104DA00094F85C103F208840A860012084F835000A
:104DB00000BF002084F8340000BF206D10B12046F1
:104DC000216D8847F8BD2068006800F4802080B11C
:104DD0002068006800F4002028B9606C10B12046FB
:104DE000616C88471DE0E06BD8B12046E16B8847D5
:104DF00017E02068006800F4807068B920680068D7
:104E000020F0100021680860012084F8350000BF00
:104E1000002084F8340000BFE06B10B12046E16B45
:104E20008847606D38B3606D00F00100F0B1052077
:104E300084F835002068006820F0010021680860CF
:104E400000BF0098401C0090B84200D905E02068DF
:104E5000006800F001000028F3D100BF012084F8B1
:104E6000350000BF002084F8340000BFE06C10B1B2
:104E70002046E16C884700BFA4E700003C0000200A
:104E80002DE9F0410446002500F018FA074614B950
:104E90000120BDE8F081606A00B100BF022084F803
:104EA000350000BF002084F8340000BF206800688F
:104EB00020F00100216808600AE000F0FFF9C01B43
:104EC000052805D920206065032084F83500E0E737
:104ED0002068006800F001000028EED12068056815
:104EE00021480540D4E901010843E16808432169EC
:104EF000084361690843A1690843E1690843216ADD
:104F000008430543606A042803D1D4E90B01084330
:104F10000543206805602068456925F00705606A3B
:104F20000543606A04280DD1A06A0543E06A48B1D0
:104F30002046FEF7F5F928B140206065012084F88D
:104F40003500A6E7206845612046FEF7CFF9064602
:104F500094F85C103F208840B0600020606501201C
:104F600084F83500002094E73F8010F02DE9F041EF
:104F700004460D4616461F464FF0000800BF94F841
:104F80003400012802D10220BDE8F081012084F81C
:104F9000340000BF94F83500012811D1022084F8B4
:104FA0003500002060653B46324629462046FEF724
:104FB0000CFA2068006840F001002168086006E0F3
:104FC00000BF002084F8340000BF4FF002084046C4
:104FD000DAE72DE9F04704460D4616461F464FF026
:104FE0000008D4F8589000BF94F83400012802D18A
:104FF0000220BDE8F087012084F8340000BF94F857
:105000003500012825D1022084F835000020606594
:105010003B46324629462046FEF7D7F994F85C1005
:105020003F208840C9F808002068006840F016005A
:1050300021680860206C28B12068006840F00800F2
:10504000216808602068006840F00100216808605D
:1050500006E000BF002084F8340000BF4FF00208D3
:105060004046C6E770B5044600F028F906462546D6
:10507000681C10B104480078054400BF00F01EF918
:10508000801BA842FAD370BD380000207047000092
:1050900010B5044604480068204020B1024804606E
:1050A0002046FFF7F3FF10BD143C0140F8B502465F
:1050B0000B460025002400200021D6E0012606FA38
:1050C00001F51E6806EA0504AC4274D11E7906F0AB
:1050D0000306012E04D01E7906F00306022E13D11A
:1050E00090684F000326BE40B0434F00DE68BE40CC
:1050F00030439060506801268E40B0431E79C6F35D
:1051000000168E40304350601E7906F00306032ED1
:1051100009D0D0684F000326BE40B0434F009E68C0
:10512000BE403043D0601E7906F00306022E13D134
:10513000CF0802F1200656F827004E07F70E0F267B
:10514000BE40B0434F07FF0E1E69BE403043CF083C
:1051500002F1200646F8270010684F000326BE40E3
:10516000B0431E7906F003064F00BE403043106086
:105170005E6806F44036002E76D000BF002600960A
:105180003C4E366846F480463A4F3E603E463668AE
:1051900006F48046009600BF00BF374E8F0856F8D1
:1051A00027008E07370F0F26BE40B043334EB24262
:1051B00002D1002624E057E0314EB24201D101264F
:1051C0001EE0304EB24201D1022619E02E4EB2420C
:1051D00001D1032614E02D4EB24201D104260FE086
:1051E0002B4EB24201D105260AE02A4EB24201D12D
:1051F000062605E0284EB24201D1072600E0082627
:105200008F073F0FBE4030431B4E8F0846F82700E4
:10521000224E3068A0435E6806F4801606B1204333
:105220001E4E3060361D3068A0435E6806F40016DE
:1052300006B12043194E361D3060184E361F3068B7
:10524000A0435E6806F4003606B12043134E361FB5
:105250003060361F3068A0435E6806F4803606B1C1
:1052600020430E4E083E3060491C1029FFF426AF43
:10527000F8BD0000443802400838014000000240F8
:105280000004024000080240000C024000100240EE
:105290000014024000180240001C0240083C01407B
:1052A000024613690B400BB1012000E0002070475B
:1052B0000AB1816101E00B04836170470148006815
:1052C0007047000030000020034800680349097857
:1052D0000844014908607047300000203800002071
:1052E00010B50D48006840F400700B49086008468E
:1052F000006840F4806008600846006840F48070F0
:105300000860032000F0E0F80F2000F007F800F03C
:105310005FF8002010BD0000003C02402DE9F04184
:1053200088B004460027B84600BF002001902348FB
:10533000006840F01000214908600846006800F04D
:105340001000019000BF00BF02A903A800F092F96D
:10535000069F1FB900F0B6F9054602E000F0B2F969
:1053600045001748B5FBF0F0A0F1010815481649B3
:10537000086040F2E7311448C160C0F804800021A1
:1053800001618160816100F02DFF064696B90E48EB
:1053900000F08EFF06466EB9362000F043F8102C60
:1053A00007D200222146362000F050F8074804605A
:1053B00000E00126304608B0BDE8F08140380240E8
:1053C00040420F0000100040541000203400002024
:1053D00008B500BF002000901148006840F48040EC
:1053E0000F4908600846006800F48040009000BF44
:1053F00000BF00BF00200090081F006840F08050F0
:10540000091F08600846006800F08050009000BF47
:1054100000BF00220F21901E00F018F808BD000008
:10542000443802400146084600280DDB00BF00BF9B
:1054300000F01F0301229A4043099B0003F1E0237F
:10544000C3F8002100BF00BF00BF70472DE9F05F27
:1054500080460D461646002708F0F4FC07463946FC
:105460002A46334601F00700C0F1070ABAF1040FDB
:1054700002D94FF0040A01E0C0F1070AD14600F159
:10548000040ABAF1070F02D24FF0000A01E0A0F1BE
:10549000030AD4464FF0010A0AFA09FAAAF1010AEE
:1054A0000AEA020A0AFA0CFA4FF0010B0BFA0CFB9B
:1054B000ABF1010B0BEA030B4AEA0B042146404611
:1054C00008F0C8FCBDE8F09F00BF00F00702064BE3
:1054D00019684FF6FF031940044B0B4343EA0221BE
:1054E000014B196000BF70470CED00E00000FA05A9
:1054F00070B504460D460CB9012070BD58480068CF
:1055000000F00700A84209D255490D70084600680E
:1055100000F00700A84201D00120EEE7207800F05B
:10552000020002281DD1207800F00400042805D1D3
:105530004C48006840F4E0504A490860207800F088
:105540000800082805D14748006840F460404549F4
:1055500008604448006820F0F000A1680843414911
:105560000860207800F00100A8B36068012807D126
:105570003C4808380068C0F34040B8B90120BCE797
:105580006068022802D06068032807D135480838CF
:105590000068C0F3406048B90120AEE731480838E0
:1055A0000068C0F3400008B90120A6E72D48006854
:1055B00020F00300616808432A490860FFF77EFE77
:1055C000064609E0FFF77AFE801B41F288318842E7
:1055D00002D9032091E707E02248006800F00C00A0
:1055E0006168B0EB810FEDD11D48006800F0070045
:1055F000A84209D91A490D700846006800F0070052
:10560000A84201D0012078E7207800F004000428A7
:1056100007D11448006820F4E050E16808431149BC
:105620000860207800F00800082808D10D480068BC
:1056300020F46040216940EAC1000A49086000F096
:1056400061F808490968C1F30311074A515CC84071
:105650000649086006480068FFF760FE00204CE736
:10566000003C024008380240901A01083C0000202B
:10567000340000200F2202600D4A126802F003027B
:1056800042600B4A126802F0F0028260084A126817
:1056900002F4E052C260064A126802F46042D20884
:1056A0000261044A126802F007020A6070470000B3
:1056B00008380240003C0240014800687047000082
:1056C0003C00002000B5FFF7F7FF04490968C1F36B
:1056D0008221034A515CC84000BD000008380240E6
:1056E000A01A010800B5FFF7E7FF04490968C1F3F4
:1056F0004231034A515CC84000BD000008380240F6
:10570000A01A01082DE9F047002400250026A14633
:105710002548006800F00C0020B1042805D00828B6
:105720003AD105E0DFF8849039E0DFF8849036E084
:105730001D48001F006800F03F041B48001F006860
:1057400000F4800078B11A481749091F0968C1F3AD
:105750008811A0FB01700146224600233846FAF763
:1057600036FE05460EE011480F49091F0968C1F3CE
:105770008811A0FB01700146224600233846FAF743
:1057800026FE05460848001F0068C0F30140401C83
:105790004600B5FBF6F902E0DFF8109000BF00BF4D
:1057A0004846BDE8F0870000083802400024F400B5
:1057B000001BB700F8B504460CB90120F8BD2078ED
:1057C00000F00100002874D0F948006800F00C00D7
:1057D00004280DD0F648006800F00C00082813D10A
:1057E000F348001F006800F48000B0F5800F0BD173
:1057F000EF4808380068C0F34040002859D060687E
:10580000002856D10120D9E700BF6068B0F5803F7D
:1058100008D1E7480838006840F48030E449083986
:1058200008601EE06068B0F5A02F0DD1E048083890
:10583000006840F48020DE490839086008460068A6
:1058400040F4803008600CE0D9480838006820F443
:105850008030D749083908600846006820F4802065
:10586000086000BF606890B1FFF728FD054606E0BC
:10587000FFF724FD401B642801D903209EE7CC4894
:1058800008380068C0F340400028F1D011E0FFF76D
:1058900015FD054606E0FFF711FD401B642801D900
:1058A00003208BE7C24808380068C0F34040002856
:1058B000F1D1207800F0020002285FD1BC480068D6
:1058C00000F00C0058B1BA48006800F00C0008283D
:1058D0001CD1B748001F006800F48000B0B9B4487C
:1058E00008380068C0F3400020B1E068012801D00A
:1058F000012063E7AE480838006820F0F80021690D
:1059000040EAC100AA490839086037E0E06800B3FE
:105910000120A8490860FFF7D1FC054606E0FFF723
:10592000CDFC401B022801D9032047E7A0480838D6
:105930000068C0F340000028F1D09D480838006896
:1059400020F0F800216940EAC1009949083908604F
:1059500014E0002097490860FFF7B0FC054606E018
:10596000FFF7ACFC401B022801D9032026E7904832
:1059700008380068C0F340000028F1D1207800F01A
:10598000080008282CD16069A8B101208A49086064
:10599000FFF794FC054606E0FFF790FC401B022849
:1059A00001D903200AE782486C300068C0F3400048
:1059B0000028F1D014E000207F490860FFF77EFC4A
:1059C000054606E0FFF77AFC401B022801D90320B8
:1059D000F4E677486C300068C0F340000028F1D14D
:1059E000207800F00400042870D100277048383077
:1059F000006800F0805090B900BF002000906C4813
:105A00003830006840F080506949383108600846F5
:105A1000006800F08050009000BF00BF0127674879
:105A2000006800F48070B0B96448006840F4807089
:105A300062490860FFF742FC054606E0FFF73EFCBE
:105A4000401B022801D90320B8E65C48006800F436
:105A500080700028F2D000BFA068012808D1544807
:105A60006830006840F001005149683108601DE06D
:105A7000A06805280DD14E486830006840F0040049
:105A80004B49683108600846006840F00100086032
:105A90000CE047486830006820F001004449683154
:105AA00008600846006820F00400086000BFA06895
:105AB000A8B1FFF703FC054609E0FFF7FFFB401B19
:105AC00041F28831884202D9032077E626E038483F
:105AD00068300068C0F340000028EED013E0FFF704
